:100000000C945E000C941B0A0C94F4090C9486006A
:100010000C9486000C9486000C9486000C94860048
:100020000C9486000C9486000C9486000C94860038
:100030000C9486000C9486000C9486000C94860028
:100040000C94AA090C9486000C94680A0C94420A39
:100050000C9486000C9486000C9486000C94860008
:100060000C94C9060C9486000000000025002800AE
:100070002B00000000090003020000040508000036
:100080000000000000000000000404040404040454
:100090000402020202020203030303030302020337
:1000A000010204081020408001020408102001020F
:1000B0000408102040804000C70A9A0A11241FBE7D
:1000C000CFEFD8E0DEBFCDBF11E0A0E0B1E0E8E9BE
:1000D000FBE102C005900D92AE34B107D9F726E0DE
:1000E000AEE4B1E001C01D92AF39B207E1F710E014
:1000F000CDE5D0E004C02197FE010E94930CCC35E1
:10010000D107C9F70E940F0C0C94BF0D0C9400008E
:10011000FC01918D828D981761F0828DDF01A80F0F
:10012000B11D5D968C91928D9F5F9F73928F90E031
:1001300008958FEF9FEF0895FC01918D828D9817A0
:1001400031F0828DE80FF11D858D90E008958FEFDD
:100150009FEF0895FC01918D228D892F90E0805CA6
:100160009F4F821B91098F739927089580E090E03B
:10017000892B29F00E94310881110C940000089508
:10018000CF93DF93EB01DC01ED91FC910680F781C9
:10019000E02D0995882379F08091DB019091DC01B5
:1001A000C817D90711F0CD2B29F481E09091DE0119
:1001B000911101C080E0DF91CF910895089585ED00
:1001C0008093BC008091BC0084FDFCCF1092E601BE
:1001D000089540918E01262F30E0240F311D2132E9
:1001E0003105DCF42091E6012430C9F4FC0180E003
:1001F00090E0861758F430918E012191DC01A259CC
:10020000BE4FA30FB11D2C930196F3CF80918E01A9
:10021000680F60938E0180E0089581E0089582E088
:100220000895089508950895E091EA018091E90103
:10023000E81730F4F0E0E25BFE4F808190E0089533
:100240008FEF9FEF08959091EA018091E90198174F
:1002500050F4E92FF0E0E25BFE4F208130E09F5F39
:100260009093EA0102C02FEF3FEFC90108958091FA
:10027000E90190E02091EA01821B91090895CF9352
:10028000DF93CB01EA01642F0E94E900CE01DF91E8
:10029000CF910895CF93DF931F92CDB7DEB76983D7
:1002A00061E0CE0101960E94E90081E090E00F90AC
:1002B000DF91CF910895089580E090E008954F92E6
:1002C0005F926F927F929F92AF92BF92CF92DF9296
:1002D000EF92FF920F931F93CF93DF9300D000D044
:1002E00000D0CDB7DEB79E838D836B015A01122FEC
:1002F000F02E912C2E2D30E040E050E029833A83FF
:100300004B835C838FE1E82EAD81BE81ED91FC9142
:1003100011970280F381E02D01E0212FA501B601A4
:10032000CD0109950E949E092B013C010E949E0966
:10033000DC01CB0184199509A609B70929813A8105
:100340004B815C8182179307A407B50740F4B6017F
:100350008D819E810E94C000882341F318C0AD8129
:10036000BE8152969C9152979F3160F453968C9126
:100370005397890F803218F452968C9303C0ED8105
:10038000FE81E28A9394F91408F0BECF80E02696AD
:100390000FB6F894DEBF0FBECDBFDF91CF911F9196
:1003A0000F91FF90EF90DF90CF90BF90AF909F9014
:1003B0007F906F905F904F9008954F925F926F92F1
:1003C0007F929F92AF92BF92CF92DF92EF92FF9275
:1003D0000F931F93CF93DF9300D000D000D0CDB701
:1003E000DEB79E838D836B015A01122FF02E912C64
:1003F0002E2D30E040E050E029833A834B835C832C
:10040000AD81BE81ED91FC9111970280F381E02DC9
:1004100001E0212FA501B601CD0109950E949E0999
:100420002B013C010E949E09DC01CB018419950936
:10043000A609B70929813A814B815C81821793070C
:10044000A407B50740F4B6018D819E810E94C000CB
:10045000882341F304C09394F91490F680E0269623
:100460000FB6F894DEBF0FBECDBFDF91CF911F91C5
:100470000F91FF90EF90DF90CF90BF90AF909F9043
:100480007F906F905F904F900895AF92BF92CF9200
:10049000EF920F93A12CB12CC12C0E94A6080F91B2
:1004A000EF90CF90BF90AF900895CF93DF93EC0182
:1004B00061E08A810E9451098C858CBD8D858DBD3E
:1004C000DF91CF910895FC018CB584878DB5858728
:1004D000968587859CBD8DBD60E082810C94510915
:1004E000FC01848DDF01A80FB11DA35ABF4F2C91D1
:1004F000848D90E001968F739927848FA689B789A0
:100500002C93A089B1898C9180648C93938D848D78
:10051000981306C00288F389E02D80818F7D808347
:1005200008958EBD00000DB407FEFDCF8EB5089571
:100530001F93CF93DF9360726093DF012091DE0100
:10054000222371F12091DF01222351F11091DD016D
:10055000112331F1EC0180E00E94910290E091952D
:10056000819591099D8B8C8B11501093DD01288909
:10057000398921153105A1F0821793074CF49A8926
:100580009F3170F48B89890F803248F08FE107C06A
:10059000281739072CF48A89882311F081508A8B17
:1005A000DF91CF911F9108950F931F93CF93DF9306
:1005B000EC01062F142FE881F981008CF18DE02DDC
:1005C0000995802F80680E949102812F0E949102DC
:1005D000E881F981028CF38DE02DCE01DF91CF917E
:1005E0001F910F9109941F93CF93DF93EC01162F66
:1005F000611102C045E501C04DE56AE5CE010E94EA
:10060000D402111102C040E701C04CE76CE5CE01F5
:10061000DF91CF911F910C94D4021F93CF93DF935E
:10062000EC01162FE881F981008CF18DE02D099500
:10063000812F8F770E94910280E00E949102182FF3
:10064000E881F981028CF38DE02DCE010995812F8F
:10065000DF91CF911F9108954F925F926F927F9299
:100660008F929F92AF92BF92CF92DF92EF92FF92C2
:100670000F931F93CF93DF93EC012B01142F609006
:10068000DB017090DC018090D9019090DA018091BB
:10069000DF0101E0811101C000E06DE3CE010E94A5
:1006A0000D03482F44606DE3CE010E94D4020E94E6
:1006B0009E096B017C01E881F9810190F081E02DB8
:1006C000CE010995811115C00E949E09DC01CB0164
:1006D0008C199D09AE09BF09883E9340A105B1055B
:1006E00040F4E881F9810680F781E02DCE0109957B
:1006F000E2CF7092DC016092DB015401C02EEE2447
:10070000E39400E0212FA201B301CE010E94A608CC
:100710009092DA018092D901DF91CF911F910F91D0
:10072000FF90EF90DF90CF90BF90AF909F908F9011
:100730007F906F905F904F900895CF93DF93EC017F
:100740006987611102C04AE101C04FE063E1CE0157
:100750000E94D4028985882341F061E1CE010E9484
:100760000D038F71482F406602C04885406861E1E3
:10077000CE01DF91CF910C94D402CF93DF932091DF
:10078000EB012330C9F42091D701211115C0EC01F0
:1007900064E20E940D0390E09195819591098C345B
:1007A0009F4F54F4E881F9810488F589E02D61E0D8
:1007B000CE01099581E001C080E0DF91CF910895DD
:1007C000CF93DF93EC011092DD011092DC011092C7
:1007D000DB011092D6011092D5011092D701109230
:1007E000DE011092DA011092D90168E20E940D0335
:1007F00082FF0AC06DE3CE010E940D03482F4460C2
:100800006DE3CE010E94D40240E465E2CE010E9475
:10081000D402E881F9810488F589E02D63E0CE01F6
:10082000DF91CF9109941092DF010C94E0034F9275
:100830005F926F927F928F929F92AF92BF92CF9270
:10084000DF92EF920F931F93CF93DF93EC014B0155
:10085000142FC090DB01D090DC01A090D901B090A2
:10086000DA016DE30E940D03482F44606DE3CE0171
:100870000E94D4020E949E092B013C01E881F9816B
:100880000190F081E02DCE010995811115C00E94E3
:100890009E09DC01CB0184199509A609B709883E98
:1008A0009340A105B10540F4E881F9810680F78104
:1008B000E02DCE010995E2CFD092DC01C092DB01A0
:1008C000E881F9810088F189E02DEE24E39400E0CD
:1008D000212FA401B601CE010995B092DA01A092B0
:1008E000D901DF91CF911F910F91EF90DF90CF90C1
:1008F000BF90AF909F908F907F906F905F904F9040
:1009000008954F925F926F927F92AF92BF92CF9273
:10091000DF92EF920F931F93CF93DF93EC016B0164
:100920005A01122F6DE30E940D03482F44606DE3BE
:10093000CE010E94D4020E949E092B013C01E88155
:10094000F9810190F081E02DCE010995811115C04A
:100950000E949E09DC01CB0184199509A609B709FB
:10096000883E9340A105B10540F4E881F9810680F5
:10097000F781E02DCE010995E2CFE881F981008869
:10098000F189E02DE12C212FA501B601CE010995B9
:10099000DF91CF911F910F91EF90DF90CF90BF909B
:1009A000AF907F906F905F904F900895CF93DF93BB
:1009B000EC01603208F06FE168878985882311F0C7
:1009C0006695688761E1CE010E940D03807E98855F
:1009D000482F492B61E1CE01DF91CF910C94D402D5
:1009E0001F93CF93DF932091EB01261709F45DC08D
:1009F000162FEC016230E9F168F4662309F440C077
:100A0000613009F052C061E00E940D03837E482FDF
:100A100044603BC06330B9F0643009F046C061E027
:100A20000E940D03837E482F4C6061E0CE010E943E
:100A3000D4028985882369F1E881F9810688F789DC
:100A4000E02D61E013C061E00E940D03837E482F1A
:100A5000406161E0CE010E94D40289858823C9F0FB
:100A6000E881F9810688F789E02D60E0CE010995DB
:100A700010C061E00E940D03837E482F486005C0CE
:100A800061E00E940D03482F437E61E0CE010E9489
:100A9000D4028091EB01811106C067E2CE010E9471
:100AA0000D0387FFF6CF1093EB01DF91CF911F91DC
:100AB00008951F93CF93DF932091EB012617A9F0A0
:100AC000162FEC010E94F004143079F4888999897A
:100AD000892B59F0E881F9810484F585E02D6A8934
:100AE000CE01DF91CF911F910994DF91CF911F919A
:100AF0000895FF920F931F93CF93DF93EC018091A2
:100B0000D801882351F11092D8018091EB018330F4
:100B1000B1F468E2CE010E940D0382FD39C00FC01E
:100B2000E881F981028CF38DE02DCE010995E881F1
:100B3000F9810488F589E02D63E0CE01099564E22E
:100B4000CE010E940D0390E09195819591099595B4
:100B500087959093DA018093D9018091EB018330DE
:100B600071F48091D701882389F0E881F9810488A4
:100B7000F589E02D61E0CE01099581E078C0E8813A
:100B8000F9810288F389E02DCE01099580E06FC0DC
:100B9000E881F9810488F589E02D61E0CE010995AD
:100BA000E881F981008CF18DE02DCE01099580E07E
:100BB0000E94910280E00E949102182F833408F075
:100BC00012E41093D70180E00E949102F82E80E099
:100BD0000E949102082F80E00E949102282F2C7021
:100BE00090E4299F900111242F293093D60120935E
:100BF000D501982F9370402F50E0592B5093DC0172
:100C00004093DB019F81E881F981911107C04D81FB
:100C10005E812417350711F0232B11F4133078F47B
:100C20001092D701028CF38DE02DCE010995E88159
:100C3000F9810288F389E02DCE0109958ECF1350FA
:100C40001093DD01982F90789093DE010684F7854C
:100C5000E02D682FCE01099510E08091DD01181775
:100C600008F05ECF80E00E9491021F5FF6CFDF9117
:100C7000CF911F910F91FF900895AF92BF92CF92A5
:100C8000DF92EF92FF920F931F93CF93DF93EC01CC
:100C90006B01B42EA52EF22E102FE881F981048865
:100CA000F589E02D61E0099567E2CE010E940D0310
:100CB00087FFFACF0F2D0E3308F00DE3E11004C0CB
:100CC000112321F010E403C010E801C010E08FEF01
:100CD000C816D10451F048F0C6018827937026E069
:100CE000969587952A95E1F7182B8D819E818F3FE8
:100CF000910521F018F088279370192BE881F9816C
:100D0000008CF18DE02DCE01099580E80E949102C2
:100D100083E0800F0E9491028C2D0E9491028D81B0
:100D20000E949102812F0E9491021B2DEB2CFA2C24
:100D30008E2D811B801730F4F70181917F010E9475
:100D40009102F6CFE881F981028CF38DE02DCE017E
:100D50000995E881F9810488F589E02D64E0CE01E8
:100D6000099568E2CE010E940D0383FFFACFE88166
:100D7000F9810488F589E02D61E0CE01DF91CF9102
:100D80001F910F91FF90EF90DF90CF90BF90AF90A9
:100D900009941F920F920FB60F9211242F933F9335
:100DA0004F935F936F937F938F939F93AF93BF9373
:100DB000EF93FF938091B900887F803609F49CC03F
:100DC00068F5883209F45BC090F4803109F454C0AE
:100DD00038F4882309F4F6C0883009F44DC0F6C011
:100DE000883109F44CC0803209F45DC0EFC0803412
:100DF00009F468C048F4803309F455C0883309F019
:100E0000E5C08093B101D8C0803509F44FC0883562
:100E100009F45DC0883409F0D9C0D6C0883909F416
:100E2000C7C0A8F4883709F467C038F4883609F4D5
:100E300063C0803709F460C0C9C0883809F4B8C0FD
:100E4000803909F45FC0803809F0C0C05BC0803BC6
:100E500009F486C038F4803A09F466C0883A09F487
:100E60007FC0B4C0803C09F4A7C0883C09F4A4C08A
:100E7000883B09F48AC0AAC08091D40110C0909127
:100E8000D3018091D201981770F5E091D30181E0F0
:100E90008E0F8093D301F0E0EE54FE4F808180935B
:100EA000BB0085EC86C08093B1018EC0E091D30178
:100EB00081E08E0F8093D3018091BB00F0E0EE546F
:100EC000FE4F80839091D3018091D2016EC0E0915A
:100ED000D30181E08E0F8093D3018091BB00F0E0BD
:100EE000EE54FE4F80838091E50181116DC081E059
:100EF0008093E40184EA61C083E08093E60110926C
:100F0000B001CFCF8091B001803208F051C0E091A4
:100F1000B00181E08E0F8093B0018091BB00F0E0C2
:100F2000E057FE4F8083BDCF85EC8093BC001092CC
:100F3000E6018091B001803230F4E091B001F0E040
:100F4000E057FE4F10826091B00170E0E091E00147
:100F5000F091E10180E991E009951092B00136C06D
:100F600084E08093E60110928F0110928E01E0914F
:100F7000E201F091E301099580918E01811105C094
:100F800081E080938E0110926E01E0918F0181E0EB
:100F90008E0F80938F01F0E0E259FE4F80818093A5
:100FA000BB0090918F0180918E01981708F479CF42
:100FB00085E88093BC000AC085EC8093BC00109249
:100FC000E60104C01092B1010E94DF00FF91EF9191
:100FD000BF91AF919F918F917F916F915F914F9151
:100FE0003F912F910F900FBE0F901F90189508956D
:100FF000CF92DF92EF92FF920F931F93CF93DF93E5
:101000006C017A018B01C0E0D0E0CE15DF0581F0E4
:10101000D8016D918D01D601ED91FC910190F08187
:10102000E02DC6010995892B11F02196EECF7E01A6
:10103000C701DF91CF911F910F91FF90EF90DF904B
:10104000CF900895FC01538D448D252F30E0842FDF
:1010500090E0821B930B541710F0CF9608950197E0
:10106000089584E492E00E94AA0021E0892B09F40B
:1010700020E0822F08950E94BA0DEF92FF920F9305
:101080001F93CF93DF93EC0181E0888F9B8D8C8D34
:10109000981305C0E889F989808185FD24C0F62E62
:1010A0000B8D10E00F5F1F4F0F731127E02E8C8DFB
:1010B000E8120CC00FB607FCFACFE889F9898081E5
:1010C00085FFF5CFCE010E947002F1CF8B8DFE011E
:1010D000E80FF11DE35AFF4FF0820B8FEA89FB897D
:1010E0008081806207C0EE89FF896083E889F98981
:1010F00080818064808381E090E0DF91CF911F91B7
:101100000F91FF90EF900895CF93DF93EC01888DBE
:101110008823C9F0EA89FB89808185FD05C0A889FB
:10112000B9898C9186FD0FC00FB607FCF5CF808181
:1011300085FFF2CFA889B9898C9185FFEDCFCE01CB
:101140000E947002E7CFDF91CF9108958F929F9216
:10115000AF92BF92CF92DF92EF92FF920F931F93C5
:10116000CF93DF93EC014B01F42ED52E122FE881A3
:10117000F9810488F589E02D61E0099567E2CE01E7
:101180000E940D0387FFFACFEE2011F08C2D01C0D5
:1011900080E0180F1E3308F01DE3E881F981008C10
:1011A000F18DE02DCE01099580E80E94910283E047
:1011B000810F0E949102882D0E9491028D810E94D0
:1011C00091028FEF8816910449F040F0C40126E0A7
:1011D000969587952A95E1F78C7001C080E02D8166
:1011E0003E812F3F310521F018F022273370832BE9
:1011F000EE20A9F0C11002C090E001C090E280682A
:10120000892B0E949102CC20B1F0C501B7FE03C02A
:101210009195819591090E94910211500CC0002373
:1012200041F028893989232B11F490E401C090E61C
:10123000892B0E9491020F2D8F2C9D2C882D801BB5
:10124000811730F4F40181914F010E949102F6CF91
:10125000E881F981028CF38DE02DCE010995E881BA
:10126000F9810488F589E02D64E0CE01099568E2F2
:10127000CE010E940D0383FFFACFE881F981048833
:10128000F589E02D61E0CE01DF91CF911F910F91A3
:10129000FF90EF90DF90CF90BF90AF909F908F9096
:1012A000099490E0FC01EE58FF4F2491FC01E056B8
:1012B000FF4F3491FC01E757FF4FE491EE2309F40F
:1012C0003CC0222339F1243091F038F42230F9F077
:1012D000233001F584B58F7D1CC0283071F0293092
:1012E00081F02530B9F4809180008F7D03C080911A
:1012F00080008F77809380000DC08091B0008F7741
:1013000003C08091B0008F7D8093B00003C084B58E
:101310008F7784BDF0E0EE0FFF1FE859FF4FA591D6
:10132000B4919FB7F894611104C08C913095382323
:1013300002C0EC913E2B3C939FBF08952FB7F894C9
:10134000609140027091410280914202909143026B
:101350002FBF08951F920F920FB60F9211242F9353
:101360003F938F939F93AF93BF938091400290914F
:101370004102A0914202B091430230913F0223E02A
:10138000230F2D3720F40196A11DB11D05C026E8BD
:10139000230F0296A11DB11D20933F0280934002AE
:1013A00090934102A0934202B093430280913B028A
:1013B00090913C02A0913D02B0913E020196A11D88
:1013C000B11D80933B0290933C02A0933D02B093E9
:1013D0003E02BF91AF919F918F913F912F910F90BE
:1013E0000FBE0F901F9018951F920F920FB60F927D
:1013F00011242F933F934F935F936F937F938F931A
:101400009F93AF93BF93EF93FF93E0910201F0910D
:1014100003010995FF91EF91BF91AF919F918F913A
:101420007F916F915F914F913F912F910F900FBEE0
:101430000F901F9018951F920F920FB60F921124C4
:101440002F933F934F935F936F937F938F939F93CC
:10145000AF93BF93EF93FF93E0910001F0910101EF
:101460000995FF91EF91BF91AF919F918F917F91DE
:101470006F915F914F913F912F910F900FBE0F9001
:101480001F9018951F920F920FB60F9211242F9351
:101490003F934F935F936F937F938F939F93AF93FC
:1014A000BF93EF93FF9384E492E00E947002FF9158
:1014B000EF91BF91AF919F918F917F916F915F91CC
:1014C0004F913F912F910F900FBE0F901F90189545
:1014D0001F920F920FB60F9211242F938F939F9309
:1014E000EF93FF93E0915402F09155028081E091D7
:1014F0005A02F0915B0282FD12C0908180915D02E0
:101500008F5F8F7320915E02821751F0E0915D0230
:10151000F0E0EC5BFD4F958F80935D0201C0808110
:10152000FF91EF919F918F912F910F900FBE0F9090
:101530001F9018958091F0019091F101009739F07A
:10154000DC01ED91FC910280F381E02D0995809101
:10155000F2019091F301009739F0DC01ED91FC91DB
:101560000280F381E02D09958091F4019091F501BD
:10157000009739F0DC01ED91FC910280F381E02DC0
:10158000099580912B0290912C020C94310DE4E48A
:10159000F2E01382128288EE93E0A0E0B0E0848350
:1015A0009583A683B7832EE031E03183208325EC39
:1015B00030E03587248724EC30E03787268720EC1D
:1015C00030E0318B208B21EC30E0338B228B22EC0E
:1015D00030E0358B248B26EC30E0378B268B118E58
:1015E000128E138E148EE1EEF2E013821282848347
:1015F0009583A683B78380E291E091838083E4E8BA
:10160000F6E080E5868717868AE0828382E083831E
:1016100081E08093EB0117829FE19087118613860A
:10162000128622E331E031832083EBE2F2E0118283
:10163000108290E493831086118612861386148696
:10164000158616861786ECEEF1E015821482178255
:101650001682118610869FEF938B948B958B968BB9
:10166000178A108E118E128EA1E7B6E095E01596BE
:101670009C9315979BE016969C931697E5EAF0E0ED
:10168000E4911796EC931797EEE8F0E0E491189642
:10169000EC93189740E85EE360E070E01D964D9390
:1016A0005D936D937C935097EDEEF2E090E2908322
:1016B0001092CF031092CE031092080510920705E6
:1016C00010920A051092090510920C0510920B0554
:1016D000109212051092110592E490931505109244
:1016E00016051092170510921C0610921D061092F6
:1016F0001F0610921E0610922106109220061092CC
:1017000023061092220628E135E030932506209327
:101710002406109226061092270622E030E030932D
:1017200029062093280630932B0620932A06109230
:101730002C0610922D0610922F0610922E06109253
:1017400031061092300610923306109232064AE1AA
:1017500055E05093350640933406109236061092A9
:101760003706309339062093380630933B06209392
:101770003A0610923C0610923D0610923F061092D7
:101780003E061092410610924006109243061092B7
:1017900042064AE156E050934506409344061092B3
:1017A0004606109247063093490620934806309328
:1017B0004B0620934A0610924C0630934E06209317
:1017C0004D0694E690934F061092500610925106E3
:1017D00010925206109253061092540680935506AA
:1017E0001092560680935706109258068093590619
:1017F00010925A0680935B0610925C0680935D06F9
:1018000010925E0680935F061092700610926F062B
:101810001182E4E6F6E08481877F848308957894DA
:1018200084B5836084BD85B5836085BD80916E007D
:10183000816080936E0092E090938100809181009E
:10184000816080938100809180008160809380001E
:101850008091B10084608093B1008091B00081607C
:101860008093B00087E880937A001092C100E091E5
:101870005402F09155029083E0915002F091510290
:101880001082E0915202F091530280E18083109225
:101890005C02E0915802F091590286E08083E09169
:1018A0005602F0915702808188698083E091560248
:1018B000F091570280818F7D80831092EA0110920F
:1018C000E9011092E8011092E7011092E60181E02F
:1018D0008093E5011092E40161E082E10E945109E8
:1018E00061E083E10E9451098091B9008E7F80936D
:1018F000B9008091B9008D7F8093B90088E480930E
:10190000B80085E48093BC0081E191E09093E3010D
:101910008093E20182E191E09093E1018093E00104
:101920000E94B600FDCFEE0FFF1F0590F491E02D51
:1019300009940F931F93CF93DF938230910510F496
:1019400082E090E0E0919D06F0919E0620E030E07C
:10195000A0E0B0E0309719F14081518102811381FC
:1019600048175907C8F08417950769F4109731F0A4
:1019700012960C93129713961C9327C000939D0602
:1019800010939E0622C02115310519F04217530706
:1019900018F49A01BD01EF01DF01F801DBCF211539
:1019A0003105F9F0281B390B2430310580F48A8188
:1019B0009B816115710521F0FB019383828304C033
:1019C00090939E0680939D06FE01329644C0FE01D0
:1019D000E20FF31F819391932250310939832883B9
:1019E0003AC020919B0630919C06232B41F4209114
:1019F00006013091070130939C0620939B062091AD
:101A00000401309105012115310541F42DB73EB790
:101A10004091080150910901241B350BE0919B0670
:101A2000F0919C06E217F307A0F42E1B3F0B28173A
:101A3000390778F0AC014E5F5F4F2417350748F047
:101A40004E0F5F1F50939C0640939B06819391938A
:101A500002C0E0E0F0E0CF01DF91CF911F910F9144
:101A60000895CF93DF93009709F481C0FC0132976A
:101A700013821282A0919D06B0919E06109781F468
:101A800020813181820F931F20919B0630919C060B
:101A90002817390751F5F0939C06E0939B0667C021
:101AA000ED0120E030E0CE17DF0740F44A815B8192
:101AB0009E0141155105F1F0EA01F5CFD383C283B0
:101AC00040815181840F951FC817D90759F4888127
:101AD0009981840F951F0296918380838A819B81CF
:101AE000938382832115310529F4F0939E06E093B8
:101AF0009D063DC0E901FB83EA8349915991C40FDA
:101B0000D51FEC17FD0761F480819181840F951F2B
:101B10000296E90199838883828193819B838A83DA
:101B2000E0E0F0E012968D919C911397009719F0E8
:101B3000FD01DC01F7CF8D919C9111979D012E5FE6
:101B40003F4F820F931F20919B0630919C062817D0
:101B5000390769F4309729F410929E0610929D0679
:101B600002C013821282B0939C06A0939B06DF9161
:101B7000CF91089581E090E0F8940C94BF0D10E0AF
:101B8000CDE5D0E004C0FE010E94930C2196CE3535
:081B9000D107C9F7F894FFCF5B
:101B9800F707000000009F062000000000003D0835
:101BA800F80722088408AA0088009C0000000000AA
:101BB8004A013F015C0113013701230114010000B0
:101BC8000000BD0381045F0179052C039D03D60441
:0E1BD8009802450213045905F30263025502F8
:00000001FF
