:100000000C94A4000C94720B0C944B0B0C94CC002D
:100010000C94CC000C94CC000C94CC000C94990B58
:100020000C94CC000C94CC000C94CC000C94CC0020
:100030000C94CC000C94CC000C94CC000C94CC0010
:100040000C94010B0C948C0A0C942A040C942D0C27
:100050000C94CC000C94CC000C94CC000C94CC00F0
:100060000C9441090C94CC000C94CC000C94CC0062
:100070000C94CC000C94CC000C94CC000C94CC00D0
:100080000C94CC000C94CC000C94CC000C94CC00C0
:100090000C94CC000C94CC000C94CC000C94CC00B0
:1000A0000C94CC000C94CC000C94CC000C94CC00A0
:1000B0000C94CC00850C880C5D0C610C8B0C8B0CAB
:1000C000670C6B0C710C750C8B0C7B0C7F0C02009D
:1000D000000000250028002B002E00000000002456
:1000E0000027002A002D0000000000230026002920
:1000F000002C000A0D0E0900030200000405080090
:1001000000000000000000000000000000000404E7
:1001100004040404040402020202020203030303AF
:10012000030302020305050505010204081020402F
:1001300080010204081020010204081020408040C1
:10014000010204083F17061711241FBECFEFD8E0A5
:10015000DEBFCDBF11E0A0E0B1E0E8EEF2E302C007
:1001600005900D92A036B107D9F723E0A0E6B1E0E3
:1001700001C01D92AA34B207E1F710E0C3EAD0E053
:1001800004C02197FE010E943B18C23AD107C9F76B
:100190000E9400120C9467190C940000FC01538D0E
:1001A000448D252F30E0842F90E0821B930B541751
:1001B00010F0CF96089501970895FC01918D828DDE
:1001C000981761F0828DDF01A80FB11D5D968C91AB
:1001D000928D9F5F9F73928F90E008958FEF9FEFB6
:1001E0000895FC01918D828D981731F0828DE80F72
:1001F000F11D858D90E008958FEF9FEF0895FC012C
:10020000918D228D892F90E0805C9F4F821B9109F8
:100210008F739927089580E090E0892B21F00E9448
:10022000C60A81110DC080E090E0892B71F080E05A
:1002300090E0892B51F00E940000811104C00895C4
:100240000E940000F0CF0C940000089581E080939C
:10025000CD010895CF93DF93EB01DC01ED91FC918B
:100260000680F781E02D0995882379F08091D001EF
:100270009091D101C817D90711F0CD2B29F481E055
:100280009091D301911101C080E0DF91CF91089549
:10029000089585EC8093BC001092A401089585ED2B
:1002A0008093BC008091BC0084FDFCCF1092A4011F
:1002B0000895882311F085EC01C085E88093BC0087
:1002C000089540918001262F30E0240F311D213206
:1002D0003105DCF42091A4012430C9F4FC0180E054
:1002E00090E0861758F4309180012191DC01A05AEA
:1002F000BE4FA30FB11D2C930196F3CF80918001C7
:10030000680F6093800180E0089581E0089582E0A5
:1003100008950F93413208F04AC09091A4019111C1
:10032000FCCF32E03093A4010093A6013FEF30935D
:10033000A3011092C8014093C701562FA7EAB1E06C
:10034000FB013E2F351B341718F431913D93F9CF43
:100350001092C9013091C901880F832B8093C90184
:100360008091A501813061F41092A5018091C901AD
:100370008093BB008091BC0083FDF8CF85EC01C069
:1003800085EE8093BC00222321F08091A40182306D
:10039000D1F38091A3018F3F79F08091A301803246
:1003A00041F08091A301803331F094E005C091E0E9
:1003B00003C092E001C093E0892F0F91089541326C
:1003C00008F043C09091A4019111FCCF91E090936B
:1003D000A4012093A6012FEF2093A3011092C8013E
:1003E000240F2093C7019093C9019091C901880FF0
:1003F000892B8093C9018091A501813061F410920D
:10040000A5018091C9018093BB008091BC0083FD50
:10041000F8CF85EC01C085EE8093BC008091A401EB
:100420008130E1F38091C801841710F44091C80134
:10043000A7EAB1E0962FFB018E2F891B841718F4D1
:100440008D918193F9CF842F089580E008959B01C9
:10045000AC0160E074E284EF90E00E941918DA01C8
:10046000C9014097A109B109B695A79597958795B8
:100470008093B8000895880F8093BA000895E091A2
:100480001B03F0911C03309729F01092180310926F
:10049000190309940895DC0180911D0390911E03B6
:1004A000892B19F190911303809114039817E8F0A8
:1004B00090E0292F30E0261737076CF4FD01E20F9A
:1004C000F31F4081E0911103F0911203E20FF31F3B
:1004D00040839F5FEECF1092130360931403E0916B
:1004E0001D03F0911E03CB01099408950895FC01AA
:1004F00080899189891740F40684F785E02DE80FFB
:10050000F11D808190E008958FEF9FEF0895FC0129
:1005100090898189981748F4A685B785A90FB11DE0
:100520002C9130E09F5F908B02C02FEF3FEFC9010D
:100530000895FC01218930E08089A901481B5109F7
:10054000CA010895CF92DF92EF92FF920F931F930B
:10055000CF93DF938C01CB017A01D80157962C9170
:10056000222389F0EB016B01C40ED51ECC15DD05ED
:1005700089F06991D801ED91FC910190F081E02D15
:10058000C8010995F3CFD8019896ED91FC91999700
:10059000642F0995C701DF91CF911F910F91FF90B3
:1005A000EF90DF90CF900895CF93DF931F92CDB758
:1005B000DEB7FC01698387898823D1F0868990E0C2
:1005C00024853585821793073CF081E090E0938382
:1005D000828380E090E015C089819589A389B489E0
:1005E000A90FB11D8C9385898F5F858B868B07C082
:1005F00000A4F1A5E02D61E0CE010196099581E00E
:1006000090E00F90DF91CF910895089580E090E001
:1006100008954F925F926F927F929F92AF92BF9296
:10062000CF92DF92EF92FF920F931F93CF93DF93BE
:1006300000D000D000D0CDB7DEB79E838D836B0194
:100640005A01122FF02E912C2E2D30E040E050E078
:1006500029833A834B835C838FE1E82EAD81BE8191
:10066000ED91FC9111970280F381E02D01E0212FA3
:10067000A501B601CD0109950E94F50A2B013C01A7
:100680000E94F50ADC01CB0184199509A609B70976
:1006900029813A814B815C8182179307A407B507B2
:1006A00040F4B6018D819E810E942A01882341F386
:1006B00018C0AD81BE8152969C9152979F3160F4D3
:1006C00053968C915397890F803218F452968C93DD
:1006D00003C0ED81FE81E28A9394F91408F0BECF45
:1006E00080E026960FB6F894DEBF0FBECDBFDF9137
:1006F000CF911F910F91FF90EF90DF90CF90BF901F
:10070000AF909F907F906F905F904F9008954F9221
:100710005F926F927F929F92AF92BF92CF92DF9241
:10072000EF92FF920F931F93CF93DF9300D000D0EF
:1007300000D0CDB7DEB79E838D836B015A01122F97
:10074000F02E912C2E2D30E040E050E029833A83AA
:100750004B835C83AD81BE81ED91FC91119702804A
:10076000F381E02D01E0212FA501B601CD0109950E
:100770000E94F50A2B013C010E94F50ADC01CB0125
:1007800084199509A609B70929813A814B815C81B1
:1007900082179307A407B50740F4B6018D819E81A7
:1007A0000E942A01882341F304C09394F91490F61F
:1007B00080E026960FB6F894DEBF0FBECDBFDF9166
:1007C000CF911F910F91FF90EF90DF90CF90BF904E
:1007D000AF909F907F906F905F904F900895AF92F1
:1007E000BF92CF92EF920F93A12CB12CC12C0E94FB
:1007F000A30C0F91EF90CF90BF90AF900895ECEBCA
:10080000F0E080818A7B808360E082E10E94740D49
:1008100060E083E10C94740D1092A40181E0809358
:10082000A6011092A50161E082E10E94740D61E0D1
:1008300083E10E94740DE9EBF0E080818E7F80837C
:1008400080818D7F808388E48093B80085E48093E5
:10085000BC0008951F920F920FB60F9211242F9390
:100860008F939F93EF93FF93E0910B02F0910C0213
:100870008081E0911102F091120282FD12C09081FC
:10088000809114028F5F8F7320911502821751F0AF
:10089000E0911402F0E0E550FE4F958F8093140232
:1008A00001C08081FF91EF919F918F912F910F90C7
:1008B0000FBE0F901F901895FC01848DDF01A80FCB
:1008C000B11DA35ABF4F2C91848D90E001968F7378
:1008D0009927848FA689B7892C93A089B1898C9197
:1008E00080648C93938D848D981306C00288F3895D
:1008F000E02D80818F7D80830895EF92FF920F938A
:100900001F93CF93DF93EC0181E0888F9B8D8C8DBB
:10091000981305C0E889F989808185FD24C0F62EE9
:100920000B8D10E00F5F1F4F0F731127E02E8C8D82
:10093000E8120CC00FB607FCFACFE889F98980816C
:1009400085FFF5CFCE010E945C04F1CF8B8DFE01B7
:10095000E80FF11DE35AFF4FF0820B8FEA89FB8904
:100960008081806207C0EE89FF896083E889F98908
:1009700080818064808381E090E0DF91CF911F913E
:100980000F91FF90EF900895CF93DF93EC01888D46
:100990008823C9F0EA89FB89808185FD05C0A88983
:1009A000B9898C9186FD0FC00FB607FCF5CF808109
:1009B00085FFF2CFA889B9898C9185FFEDCFCE0153
:1009C0000E945C04E7CFDF91CF9108950895CF9303
:1009D000DF93EC0161E08A810E94740D8C858CBDEF
:1009E0008D858DBDDF91CF9108958EBD00000DB432
:1009F00007FEFDCF8EB508951F93CF93DF936072EE
:100A00006093D4012091D301222371F12091D4016C
:100A1000222351F11091D201112331F1EC0180E038
:100A20000E94F50490E09195819591099D8B8C8BA6
:100A300011501093D2012889398921153105A1F06F
:100A4000821793074CF49A899F3170F48B89890F30
:100A5000803248F08FE107C0281739072CF48A89C3
:100A6000882311F081508A8BDF91CF911F910895D7
:100A70000F931F93CF93DF93EC01062F142FE88180
:100A8000F981008CF18DE02D0995802F80680E94FE
:100A9000F504812F0E94F504E881F981028CF38D21
:100AA000E02DCE01DF91CF911F910F9109941F93FB
:100AB000CF93DF93EC01162F611102C045E501C011
:100AC0004DE56AE5CE010E943805111102C040E7EC
:100AD00001C04CE76CE5CE01DF91CF911F910C94E2
:100AE00038051F93CF93DF93EC01162FE881F9812E
:100AF000008CF18DE02D0995812F8F770E94F504F0
:100B000080E00E94F504182FE881F981028CF38DB2
:100B1000E02DCE010995812FDF91CF911F9108958E
:100B20004F925F926F927F928F929F92AF92BF92FD
:100B3000CF92DF92EF92FF920F931F93CF93DF93A9
:100B4000EC012B01142F6090D0017090D1018090A6
:100B5000CE019090CF018091D40101E0811101C0BC
:100B600000E06DE3CE010E947105482F44606DE303
:100B7000CE010E9438050E94F50A6B017C01E881D4
:100B8000F9810190F081E02DCE010995811115C008
:100B90000E94F50ADC01CB018C199D09AE09BF0941
:100BA000883E9340A105B10540F4E881F9810680B3
:100BB000F781E02DCE010995E2CF7092D1016092CC
:100BC000D0015401C02EEE24E39400E0212FA201B5
:100BD000B301CE010E94A30C9092CF018092CE016E
:100BE000DF91CF911F910F91FF90EF90DF90CF9009
:100BF000BF90AF909F908F907F906F905F904F903D
:100C00000895CF93DF93EC016987611102C04AE137
:100C100001C04FE063E1CE010E9438058985882339
:100C200041F061E1CE010E9471058F71482F40664D
:100C300002C04885406861E1CE01DF91CF910C94FC
:100C40003805CF93DF9320919C022330C9F4209183
:100C5000CC01211115C0EC0164E20E94710590E005
:100C60009195819591098C349F4F54F4E881F981D5
:100C70000488F589E02D61E0CE01099581E001C08D
:100C800080E0DF91CF910895CF93DF93EC01109234
:100C9000D2011092D1011092D0011092CB0110928A
:100CA000CA011092CC011092D3011092CF01109280
:100CB000CE0168E20E94710582FF0AC06DE3CE0199
:100CC0000E947105482F44606DE3CE010E943805F3
:100CD00040E465E2CE010E943805E881F98104888C
:100CE000F589E02D63E0CE01DF91CF910994109258
:100CF000D4010C9444064F925F926F927F928F9230
:100D00009F92AF92BF92CF92DF92EF920F931F9379
:100D1000CF93DF93EC014B01142FC090D001D09002
:100D2000D101A090CE01B090CF016DE30E9471057A
:100D3000482F44606DE3CE010E9438050E94F50AF9
:100D40002B013C01E881F9810190F081E02DCE0179
:100D50000995811115C00E94F50ADC01CB018419A7
:100D60009509A609B709883E9340A105B10540F44D
:100D7000E881F9810680F781E02DCE010995E2CF67
:100D8000D092D101C092D001E881F9810088F18927
:100D9000E02DEE24E39400E0212FA401B601CE0162
:100DA0000995B092CF01A092CE01DF91CF911F9112
:100DB0000F91EF90DF90CF90BF90AF909F908F906A
:100DC0007F906F905F904F9008954F925F926F92D7
:100DD0007F92AF92BF92CF92DF92EF920F931F93C9
:100DE000CF93DF93EC016B015A01122F6DE30E9448
:100DF0007105482F44606DE3CE010E9438050E94C2
:100E0000F50A2B013C01E881F9810190F081E02D88
:100E1000CE010995811115C00E94F50ADC01CB01B4
:100E200084199509A609B709883E9340A105B10523
:100E300040F4E881F9810680F781E02DCE01099523
:100E4000E2CFE881F9810088F189E02DE12C212FA2
:100E5000A501B601CE010995DF91CF911F910F91A8
:100E6000EF90DF90CF90BF90AF907F906F905F90AA
:100E70004F900895CF93DF93EC01603208F06FE15B
:100E800068878985882311F06695688761E1CE01BE
:100E90000E947105807E9885482F492B61E1CE0123
:100EA000DF91CF910C9438051F93CF93DF9320915E
:100EB0009C02261709F45DC0162FEC016230E9F19F
:100EC00068F4662309F440C0613009F052C061E063
:100ED0000E947105837E482F44603BC06330B9F0A7
:100EE000643009F046C061E00E947105837E482F9E
:100EF0004C6061E0CE010E9438058985882369F144
:100F0000E881F9810688F789E02D61E013C061E08E
:100F10000E947105837E482F406161E0CE010E94EE
:100F2000380589858823C9F0E881F9810688F78921
:100F3000E02D60E0CE01099510C061E00E947105CE
:100F4000837E482F486005C061E00E947105482FEC
:100F5000437E61E0CE010E94380580919C028111A0
:100F600006C067E2CE010E94710587FFF6CF10939D
:100F70009C02DF91CF911F9108951F93CF93DF9330
:100F800020919C022617A9F0162FEC010E9454070D
:100F9000143079F488899989892B59F0E881F9818D
:100FA0000484F585E02D6A89CE01DF91CF911F91F0
:100FB0000994DF91CF911F910895FF920F931F9392
:100FC000CF93DF93EC018091CD01882351F11092F2
:100FD000CD0180919C028330B1F468E2CE010E9481
:100FE000710582FD39C00FC0E881F981028CF38D53
:100FF000E02DCE010995E881F9810488F589E02D7D
:1010000063E0CE01099564E2CE010E94710590E093
:10101000919581959109959587959093CF018093AE
:10102000CE0180919C02833071F48091CC018823A1
:1010300089F0E881F9810488F589E02D61E0CE012D
:10104000099581E078C0E881F9810288F389E02D73
:10105000CE01099580E06FC0E881F9810488F589A7
:10106000E02D61E0CE010995E881F981008CF18DD8
:10107000E02DCE01099580E00E94F50480E00E94F9
:10108000F504182F833408F012E41093CC0180E0AB
:101090000E94F504F82E80E00E94F504082F80E0FD
:1010A0000E94F504282F2C7090E4299F90011124B0
:1010B0002F293093CB012093CA01982F9370402F92
:1010C00050E0592B5093D1014093D0019F81E8818A
:1010D000F981911107C04D815E812417350711F008
:1010E000232B11F4133078F41092CC01028CF38D81
:1010F000E02DCE010995E881F9810288F389E02D80
:10110000CE0109958ECF13501093D201982F90786D
:101110009093D3010684F785E02D682FCE010995C1
:1011200010E08091D201181708F05ECF80E00E9495
:10113000F5041F5FF6CFDF91CF911F910F91FF90C4
:101140000895AF92BF92CF92DF92EF92FF920F93EA
:101150001F93CF93DF93EC016B01B42EA52EF22EDB
:10116000102FE881F9810488F589E02D61E0099567
:1011700067E2CE010E94710587FFFACF0F2D0E3373
:1011800008F00DE3E11004C0112321F010E403C0C6
:1011900010E801C010E08FEFC816D10451F048F0FC
:1011A000C6018827937026E0969587952A95E1F7E2
:1011B000182B8D819E818F3F910521F018F0882793
:1011C0009370192BE881F981008CF18DE02DCE010F
:1011D000099580E80E94F50483E0800F0E94F504E1
:1011E0008C2D0E94F5048D810E94F504812F0E94B0
:1011F000F5041B2DEB2CFA2C8E2D811B801730F45F
:10120000F70181917F010E94F504F6CFE881F98111
:10121000028CF38DE02DCE010995E881F9810488D7
:10122000F589E02D64E0CE01099568E2CE010E94C7
:10123000710583FFFACFE881F9810488F589E02DF3
:1012400061E0CE01DF91CF911F910F91FF90EF9060
:10125000DF90CF90BF90AF9009948CBD9DBD089555
:10126000CF93DF93EC018CB58C878DB58D878E8500
:101270009F850E942D0960E08A81DF91CF910C94B7
:10128000740D1F920F920FB60F9211242F933F935C
:101290004F935F936F937F938F939F93AF93BF937E
:1012A000EF93FF938091B900887F803609F49EC048
:1012B00078F5883209F45DC090F4803109F456C0A5
:1012C00038F4882309F4F5C0883009F44FC0F5C01C
:1012D000883109F44EC0803209F45FC0EEC080341A
:1012E00009F46AC058F4803309F457C0883309F010
:1012F000E4C08093A3010E944901DFC0803509F456
:101300004FC0883509F45DC0883409F0D6C0D3C019
:10131000883909F4C4C0A8F4883709F467C038F4E0
:10132000883609F463C0803709F460C0C6C08838C5
:1013300009F4B5C0803909F45FC0803809F0BDC038
:101340005BC0803B09F483C038F4803A09F466C07E
:10135000883A09F47CC0B1C0803C09F4A4C0883C40
:1013600009F4A1C0883B09F487C0A7C08091C901D6
:1013700010C09091C8018091C701981770F5E09155
:10138000C80181E08E0F8093C801F0E0E955FE4F5F
:1013900080818093BB0085EC83C08093A3018BC0C8
:1013A000E091C80181E08E0F8093C8018091BB005D
:1013B000F0E0E955FE4F80839091C8018091C7010C
:1013C0006BC0E091C80181E08E0F8093C8018091CD
:1013D000BB00F0E0E955FE4F80838091A6018111AA
:1013E0006AC081E08093A50184EA5EC083E08093B7
:1013F000A4011092A201CFCF8091A201803208F007
:101400004EC0E091A20181E08E0F8093A2018091F5
:10141000BB00F0E0EE57FE4F8083BDCF0E94490134
:101420008091A201803230F4E091A201F0E0EE5709
:10143000FE4F10826091A20170E0E0919802F0915D
:10144000990282E891E009951092A20136C084E0E9
:101450008093A4011092810110928001E0919A0280
:10146000F0919B02099580918001811105C081E076
:101470008093800110926001E091810181E08E0FE4
:1014800080938101F0E0E05AFE4F80818093BB00A1
:101490009091810180918001981708F47CCF85E8B4
:1014A0008093BC000AC085EC8093BC001092A4011C
:1014B00004C01092A3010E944F01FF91EF91BF91D0
:1014C000AF919F918F917F916F915F914F913F91DC
:1014D0002F910F900FBE0F901F9018950F93CF93E1
:1014E000DF93EC018B899C89EEA1FFA1062F21E0FF
:1014F0004E89BC018A8909951D8A1E8A1F8ADF913F
:10150000CF910F910895FC01108A118A158A168ACD
:10151000048CF58DE02D09941F920F920FB60F9257
:1015200011248F938EB58F910F900FBE0F901F9047
:1015300018950895CF92DF92EF92FF920F931F9329
:10154000CF93DF936C017A018B01C0E0D0E0CE1520
:10155000DF0581F0D8016D918D01D601ED91FC91EF
:101560000190F081E02DC6010995892B11F021969B
:10157000EECF7E01C701DF91CF911F910F91FF90B8
:10158000EF90DF90CF9008950E9462198BEF91E069
:101590000E94FF0021E0892B09F420E0822F0895AA
:1015A0003FB7F8948091F6019091F701A091F8016E
:1015B000B091F90126B5A89B05C02F3F19F00196FF
:1015C000A11DB11D3FBFBA2FA92F982F8827820FC9
:1015D000911DA11DB11DBC01CD0142E0660F771F19
:1015E000881F991F4A95D1F708952FB7F8946091F5
:1015F000F2017091F3018091F4019091F5012FBFF8
:1016000008951F920F920FB60F9211242F933F93BC
:101610008F939F93AF93BF938091F2019091F301C9
:10162000A091F401B091F5013091F10123E0230F75
:101630002D3720F40196A11DB11D05C026E8230F0A
:101640000296A11DB11D2093F1018093F2019093A8
:10165000F301A093F401B093F5018091F60190910C
:10166000F701A091F801B091F9010196A11DB11DFA
:101670008093F6019093F701A093F801B093F901DC
:10168000BF91AF919F918F913F912F910F900FBE7E
:101690000F901F9018951F920F920FB60F92112462
:1016A0002F933F934F935F936F937F938F939F936A
:1016B000AF93BF93EF93FF93E0910201F091030189
:1016C0000995FF91EF91BF91AF919F918F917F917C
:1016D0006F915F914F913F912F910F900FBE0F909F
:1016E0001F9018951F920F920FB60F9211242F93EF
:1016F0003F934F935F936F937F938F939F93AF939A
:10170000BF93EF93FF93E0910001F09101010995E0
:10171000FF91EF91BF91AF919F918F917F916F91C9
:101720005F914F913F912F910F900FBE0F901F909F
:1017300018951F920F920FB60F9211242F933F937B
:101740004F935F936F937F938F939F93AF93BF93C9
:10175000EF93FF938091E5019091E601A091E7015D
:10176000B091E801892B8A2B8B2B59F19091D801EC
:10177000E091D901F091DA018081892780838091FD
:10178000E5019091E601A091E701B091E8011816FA
:1017900019061A061B060CF04FC08091E5019091C6
:1017A000E601A091E701B091E8010197A109B10913
:1017B0008093E5019093E601A093E701B093E801DF
:1017C0003BC080910401EEECF0E0E4919FEF909338
:1017D0000401E230C1F050F4EE2391F0E13049F51C
:1017E00090916F009D7F90936F0023C0E330E1F0F4
:1017F000E430F9F4909172009D7F9093720019C0CB
:1018000010926E0016C0909170009D7F90937000B2
:1018100091E09093B0009091B100987F9460909384
:10182000B1001092B30005C0909171009D7F90931C
:10183000710060E00E94740DFF91EF91BF91AF9134
:101840009F918F917F916F915F914F913F912F91D8
:101850000F900FBE0F901F9018951F920F920FB60A
:101860000F9211242F933F934F935F936F937F9326
:101870008F939F93AF93BF93EF93FF938BEF91E081
:101880000E945C04FF91EF91BF91AF919F918F9166
:101890007F916F915F914F913F912F910F900FBE6C
:1018A0000F901F90189590E0FC013297ED30F105F4
:1018B00090F5E65AFF4F0C943B18809180008F778B
:1018C00003C0809180008F7D809380000895809177
:1018D000B0008F7703C08091B0008F7D8093B000FF
:1018E0000895809190008F7703C0809190008F7D44
:1018F0008093900008958091A0008F7703C080911D
:10190000A0008F7D8093A000089584B58F7702C0DA
:1019100084B58F7D84BD0895CF93DF93EC01862F2E
:101920002C853D85642F70E0261737070CF4422F75
:101930006E857F85ECA1FDA121E00995188A898B30
:10194000DF91CF9108958F929F92AF92BF92CF92E5
:10195000DF92EF92FF920F931F93CF93DF93EC01EF
:101960004B01F42ED52E122FE881F9810488F589D8
:10197000E02D61E0099567E2CE010E94710587FFC5
:10198000FACFEE2011F08C2D01C080E0180F1E332D
:1019900008F01DE3E881F981008CF18DE02DCE0186
:1019A000099580E80E94F50483E0810F0E94F50408
:1019B000882D0E94F5048D810E94F5048FEF881612
:1019C000910449F040F0C40126E0969587952A9548
:1019D000E1F78C7001C080E02D813E812F3F310501
:1019E00021F018F022273370832BEE20A9F0C110CC
:1019F00002C090E001C090E28068892B0E94F5044B
:101A0000CC20B1F0C501B7FE03C091958195910935
:101A10000E94F50411500CC0002341F02889398937
:101A2000232B11F490E401C090E6892B0E94F50469
:101A30000F2D8F2C9D2C882D801B811730F4F401E5
:101A400081914F010E94F504F6CFE881F981028C63
:101A5000F38DE02DCE010995E881F9810488F5899F
:101A6000E02D64E0CE01099568E2CE010E94710587
:101A700083FFFACFE881F9810488F589E02D61E0E0
:101A8000CE01DF91CF911F910F91FF90EF90DF90EA
:101A9000CF90BF90AF909F908F900994CF93DF939A
:101AA000EC018B8181110CC089819A810E94830A8B
:101AB00081E08B83CE010E944E0D982F882381F008
:101AC0008881E981FA8191E0978B828B158A168A49
:101AD00061E089819A810E946E0A91E0811190E013
:101AE000892FDF91CF9108951F93CF93DF93282FF4
:101AF00030E0F901ED50FF4F8491F901E75DFE4FB1
:101B0000D491F901E25FFE4FC491CC23C1F0162FAE
:101B100081110E94530CEC2FF0E0EE0FFF1FE153F8
:101B2000FF4FA591B4919FB7F894111104C08C9107
:101B3000D095D82302C0EC91DE2BDC939FBFDF91C0
:101B4000CF911F9108956F927F928F929F92AF9243
:101B5000BF92CF92DF92EF92FF920F931F93CF939A
:101B6000DF9300D01F92CDB7DEB78C01DC011F964A
:101B70004D935D936D937C9352971A968C911A971F
:101B8000882319F01C964C9302C0F8014387452F17
:101B9000562F672F7727882321F0D8011B964C9367
:101BA00002C0F80144876801FBE0CF0ED11CD801C8
:101BB00016968C91169717969C91179789839A83FE
:101BC000ED90FC901197E114F10409F446C01996C8
:101BD0000C9110E098012E5F3F4FF70184819581B1
:101BE00082179307C0F180810180F281E02D91E09E
:101BF000978B828B158A168A0115110581F4F701DE
:101C000081819281DC01ED91FC910280F381E02DD4
:101C100042E050E0B60109950297E9F412C0F701DD
:101C200081819281DC01ED91FC910280F381E02DB4
:101C3000A801BE016F5F7F4F09950817190759F476
:101C4000DECF61E0F701818192810E946E0A91E00E
:101C5000882309F47AC090E078C0D8011296ED90FC
:101C6000FC901397E114F104B1F314962D913C917B
:101C700015972115310511F48F770AC022303105EF
:101C800011F4806805C02130310519F48F77806424
:101C90008983F8016184712CD7018D919C911197F2
:101CA000892B41F01296ED91FC91139780819181DF
:101CB0000E942D0960E0F70183850E94740DCE011A
:101CC00001964C015C01C501881999098615970593
:101CD000A8F4D5018D915D018B83F70180819181FD
:101CE000892B29F0CE0103960E94F611ECCFBE019C
:101CF0006D5F7F4FC7010E944711E5CF035F1F4F04
:101D0000D6018D916D018B83F70180819181892BA3
:101D100029F0CE0103960E94F61106C0BE016D5F48
:101D20007F4FC7010E9447110C151D0549F761E05F
:101D3000D7011B968C910E94740DF70180819181CF
:101D4000892B11F00E94E60491E0892F0F900F90EB
:101D50000F90DF91CF911F910F91FF90EF90DF9047
:101D6000CF90BF90AF909F908F907F906F9008958D
:101D7000CF92DF92EF92FF920F931F93CF93DF9357
:101D80009091DA029F3F51F4DF91CF911F910F9113
:101D9000FF90EF90DF90CF900C94F504E82EF12C9B
:101DA000C7E0D0E001E010E0FF0C60E08091DA02D3
:101DB0000E94740DB8010C2E01C0660F0A94EAF758
:101DC0006E218091D8020E94740D61E08091DA0248
:101DD0000E94740D2091D90230E0F901ED50FF4FBF
:101DE0008491F901E75DFE4FD490F901E25FFE4F67
:101DF000C490CC2071F081110E94530CEC2DF0E0C6
:101E0000EE0FFF1FE951FF4FA591B491EC91DE2237
:101E100069F4219708F0C8CF8F2DDF91CF911F91E2
:101E20000F91FF90EF90DF90CF9008958F2D8160FC
:101E3000F82EEFCFCF93DF93D82FC62F8091D70204
:101E40008F3F89F58091CE02A091C402B091C50266
:101E500091E057969C93579752968C93529755962C
:101E60001C92559756961C925697ED91FC9111979E
:101E70000190F081E02D6D2FCD0109958091C40274
:101E80009091C502DC01ED91FC910190F081E02D73
:101E90006C2F099561E08091C4029091C502DF9199
:101EA000CF910C946E0A8091DA028F3F21F482E583
:101EB00091E00E942D0960E08091D7020E94740D8C
:101EC0008D2F8F770E94B80E8C2F0E94B80E61E084
:101ED0008091D7020E94740D8091DA028F3F21F425
:101EE000DF91CF910C94E604DF91CF910895CF93C9
:101EF000C82F8091D7028F3FC9F58091CE02A09163
:101F0000C402B091C50291E057969C9357975296A0
:101F10008C93529755961C92559756961C925697AD
:101F2000ED91FC9111970190F081E02D6C2FCD0186
:101F3000099561E08091C4029091C5020E946E0AE9
:101F400041E06091CE028091C4029091C5020E944E
:101F50008C0C8091C4029091C502DC01ED91FC9142
:101F60000284F385E02D0995C82F20C08091DA0204
:101F70008F3F21F482E591E00E942D0960E080917D
:101F8000D7020E94740D8C2F80680E94B80E80E0EA
:101F90000E94B80EC82F61E08091D7020E94740D94
:101FA0008091DA028F3F11F40E94E6048C2FCF91CA
:101FB0000895CF93DF93C82F8091D7028F3F09F008
:101FC0004AC08091CE02A091C402B091C50291E0B6
:101FD00057969C93579752968C93529755961C926E
:101FE000559756961C925697ED91FC91119701903A
:101FF000F081E02D6C2FCD01099561E08091C40244
:102000009091C5020E946E0A42E06091CE028091DA
:10201000C4029091C5020E948C0C8091C4029091E0
:10202000C502DC01ED91FC910284F385E02D099558
:10203000C82F8091C4029091C502DC01ED91FC9102
:102040000284F385E02D099520E030E03C2FE90182
:10205000C82BD92B29C08091DA028F3F21F482E569
:1020600091E00E942D0960E08091D7020E94740DDA
:102070008C2F80680E94B80E80E00E94B80EC82F96
:1020800080E00E94B80E2C2F30E0322F2227E90189
:10209000C82B61E08091D7020E94740D8091DA0212
:1020A0008F3F11F40E94E6049C2F8D2FDF91CF917A
:1020B0000895CF93DF9390E0FC01E75DFE4F2491FC
:1020C000FC01E25FFE4F8491882361F190E0880F6C
:1020D000991FFC01E552FF4FC591D491FC01E153DA
:1020E000FF4FA591B491611109C09FB7F894888101
:1020F000209582238883EC912E230BC0623061F4FB
:102100009FB7F8948881322F309583238883EC9190
:102110002E2B2C939FBF06C08FB7F894E8812E2BEF
:1021200028838FBFDF91CF910895CF93CFB7F894D5
:102130008091FA01811127C0E8E1F1E08491E3E3A5
:10214000F1E09491E82FF0E0EE0FFF1FE552FF4F12
:10215000A591B491EC91E92321F461E08AE00E9419
:10216000740D61E08AE00E9459108CB580618CBDCD
:102170008CB580648CBD61E08DE00E94591061E0F7
:102180008BE00E9459108091FA018F5F8093FA01D1
:10219000CFBFCF9108958230910538F0880F991FF5
:1021A000880F991F05970197F1F708958F929F92D5
:1021B000AF92BF92CF92DF92EF92FF926B017C01C0
:1021C0000E94D00A4B015C01C114D104E104F10466
:1021D000F1F00E94D00ADC01CB0188199909AA0903
:1021E000BB09883E9340A105B10570F321E0C21AF6
:1021F000D108E108F10888EE880E83E0981EA11C42
:10220000B11CC114D104E104F10419F7DDCFFF9032
:10221000EF90DF90CF90BF90AF909F908F900895F8
:10222000EF92FF920F931F93CF93DF938C01EB01FB
:1022300061E00E94BD07209719F08881811112C0CA
:10224000C0E06DE3C8010E9471058E7F482F4C2BC2
:102250006DE3C801DF91CF911F910F91FF90EF9037
:102260000C943805C8010E9430098EEB0E94F504D9
:102270007E0180E1E80EF11C89910E94F504EC16C4
:10228000FD06D1F7C8010E94E704C1E0DACF9F92B2
:10229000AF92BF92CF92DF92EF92FF920F931F9374
:1022A000CF93DF93EC016B0188859985892B11F021
:1022B00010E801C011E0F6019080892D8123AA2445
:1022C000A3948111A12C2C813D814E815F8160E21C
:1022D00071EA87E090E00E941918022FB12CE22EDB
:1022E000F12C002319F0C7010E94CB108A85877F4B
:1022F000B9F58D858F3FB9F0992D912381E009F4CF
:1023000080E08A1581F0EF85F8898F89992331F073
:102310009081892B8083AA24A39405C09081809505
:1023200089238083A12CE989FA899081898D892B61
:102330008083002319F0C7010E94CB108E858F3F48
:1023400039F0EB89FC899081888D892309F0B12AC5
:10235000E989FA899081898D8095892380832CC0B1
:10236000E989FA899081898D892B8083002319F06E
:10237000C7010E94CB108D858F3F69F0EF85F889EA
:102380008F89992D912319F09081892B03C0908119
:10239000809589238083E989FA899081898D809548
:1023A000892380838E858F3F39F0EB89FC8990816A
:1023B000888D892309F0B12A8E858F3F11F0F601AF
:1023C000B08288859985892B79F4110F111189CFF5
:1023D000DF91CF911F910F91FF90EF90DF90CF9001
:1023E000BF90AF909F9008951695F0CFFC0120818B
:1023F0002EBD0DB407FEFDCF2EB5FC012083089540
:10240000CF93DF93CDB7DEB7C154D1090FB6F8949F
:10241000DEBF0FBECDBF789484B5836084BD85B523
:10242000836085BD80916E00816080936E0092E034
:1024300090938100809181008160809381008091E0
:1024400080008160809380008091B10084608093DF
:10245000B1008091B00081608093B00080919100C4
:1024600083608093910080919000816080939000C0
:102470008091A10083608093A1008091A000816081
:102480008093A00087E880937A001092C100E091C9
:102490000B02F0910C029083E0910702F091080288
:1024A0001082E0910902F0910A0280E1808310928B
:1024B0001302E0910F02F091100286E08083E09118
:1024C0000D02F0910E02808188698083E0910D02F7
:1024D000F0910E0280818F7D808383E093E00E94E3
:1024E000830A62E082E00E94591061E083E00E946A
:1024F000591060E085E00E9459108CB580648CBD55
:102500008CB580688CBD62E084E00E94591062E066
:1025100080E00E94591060E083E00E945910809191
:10252000D7028F3F39F48091C4029091C5020E9476
:10253000830A1CC061E00E94740D61E08091D702A3
:102540000E9459108091DA028F3F19F40E94951071
:102550000DC061E00E94591061E08091D8020E9494
:10256000591060E08091D9020E94591080ED0E94BC
:10257000770F90E0A0E0B0E08093CF029093D0027C
:10258000A093D102B093D20280369105A105B10586
:1025900009F0F6C066EB80EE0E941A0F6AE070E068
:1025A00080E090E00E94D61083EF0E94770F80FDBC
:1025B000F5CF88E80E94D90F9093E0028093DF0264
:1025C0008AE80E94D90F9093E2028093E1028CE89E
:1025D0000E94D90F9093E4028093E3028EE80E9458
:1025E000D90F9093E6028093E50280E90E94D90F0B
:1025F0009093E8028093E70282E90E94D90F9093BA
:10260000EA028093E90284E90E94D90F9093EC02D8
:102610008093EB0286E90E94D90F9093EE0280939B
:10262000ED0288E90E94D90F9093F0028093EF02A7
:102630008AE90E94D90F9093F2028093F1028CE90B
:102640000E94D90F9093F4028093F3028EE90E94C6
:10265000D90F9093F6028093F50281EA0E94770FDA
:102660008093F70281EE0E94D90F9093F902809334
:10267000F80283EE0E94770F8093FA0284EE0E94A4
:10268000770F182F85EE0E94770F40E1140290011A
:1026900011248F70282B3093FC022093FB0286EECE
:1026A0000E94770F182F85EE0E94770F90E1190294
:1026B0009001112490E064E0959587956A95E1F783
:1026C000822B932B9093FE028093FD0287EE0E9453
:1026D000770F8093FF028DEE8093010380910203B8
:1026E0008F71806A8093020380910003807C8093C5
:1026F000000360E084EF0E941A0F6091020362956C
:102700006695677082EF0E941A0F90910003692FFF
:102710006770E0E26E9F90011124892F869586955F
:1027200086958770F4E08F9FB0011124622B732B84
:1027300097FB992790F9692B85EF0E941A0F9091CA
:102740000103692F677040E2649F90011124892F73
:102750008695869586958770E4E08E9FB00111245A
:10276000622B732B9295969596959370692B84EFB7
:102770000E941A0F64E670E080E090E00E94D6109C
:102780008091B4029091B502892BA9F486E090E083
:102790000E944118FC018091B702808383E093E09E
:1027A00092838183138280E290E095838483F09307
:1027B000B502E093B402E090B402F090B502F701E4
:1027C000818192810E94830A11E0F7011383C7017E
:1027D0000E944E0D9E012F5F3F4F7901882309F41F
:1027E0005CC080E090E1A0E0B0E08093B8029093FC
:1027F000B902A093BA02B093BB028AE090E0A0E0D5
:10280000B0E08093BC029093BD02A093BE02B0934F
:10281000BF0280E090E0A0E0B0E48093C00290931B
:10282000C102A093C202B093C3028091B4029091FE
:10283000B50222961CAE1DAE1EAE1FAE229798ABFF
:102840008FA71AAA19AA18AF85E090E09EAB8DABAE
:1028500019AF02E00FAB40E050E160E070E0CE0164
:102860008F960E94A30D8091B4029091B502188AB0
:10287000198A1A8A1B8A9A8389831C821B821A8767
:1028800018861F821B8709874FE959E360E070E0D3
:10289000C7010E94A30D8093B6021092AE0210925F
:1028A000AD021092B2021092B1021092D4018FE1E7
:1028B0008093AF0281E08093B0028091A0028230C9
:1028C00021F0833021F08FEF03C080E001C081E070
:1028D0008093A1029EE2F701292F11922A95E9F730
:1028E00081E0898384E08A8332E03B8323E02D8387
:1028F0003E838F8380E4888735E039872A8726E006
:102900002B8723E32C8737E03D8728E02F8729E0BA
:10291000298B29E12B8B22E42C8B45E24D8B8E8B6E
:1029200046E24F8B388F38E2398F30E13A8F39E207
:102930003B8F3CED3C8F9D8F98E89E8F9FE29F8F51
:102940009DE298A390E399A337E33BA330E93CA32E
:1029500038E33DA32EA32CE32FA32FE828A72DE3D4
:1029600029A722E12AA72FE62BA79CA79FEF9DA7C7
:102970009CE69E87888B84E68AA361E080919F0213
:102980000E94740D61E080919F020E945910809115
:10299000A7029091A802892B31F485ED91E09093E4
:1029A000A8028093A7020E94951080E58093AB0255
:1029B00081E08093AC020E94F50A4B015C014AEA77
:1029C0006FE28DE992E00E9438056FE28DE992E0B6
:1029D0000E9471058A3A61F00E94F50ADC01CB0180
:1029E00088199909AA09BB09C297A105B10538F34D
:1029F0000E94F50A4B015C0145E56FE28DE992E02A
:102A00000E9438056FE28DE992E00E9471058535DC
:102A100061F00E94F50ADC01CB0188199909AA0925
:102A2000BB09C297A105B10538F310E0F701E10F2A
:102A3000F11DE10FF11D60816F3F39F041818DE99A
:102A400092E00E9438051F5FF1CF60E070E08DE9F1
:102A500092E00E9410116091A6028DE992E00E941E
:102A6000010661E08DE992E00E94BD070E94F50A2F
:102A70006B017C0167E28DE992E00E94710587FDA0
:102A80000CC00E94F50ADC01CB018C199D09AE092E
:102A9000BF09C297A105B10568F30E94F50ADC01E0
:102AA000CB018C199D09AE09BF09C297A105B105DB
:102AB00018F58091A1028230C8F4E82FF0E0EE0F03
:102AC000FF1FE050FF4F26E231E031832083813049
:102AD00039F080916900836080936900E89A06C0AC
:102AE000809169008C6080936900E99A85E193E0A8
:102AF0009093A3028093A2026FE471E08DE992E0CB
:102B00000E94101186EA9FEF9093AE028093AD026F
:102B100060E08DE992E00E94BD078091040183305E
:102B200021F08F3F09F06FC104C0EEECF0E014918A
:102B3000C2C083E080930401EEECF0E0E491EF3F4B
:102B400009F461C1E23009F46DC040F5EE2309F4E7
:102B50004DC0E13009F0AEC01092800010928100AB
:102B600080918100886080938100809181008160E4
:102B700080938100E1E1F1E0E491F0E0EE0FFF1FCE
:102B8000E153FF4F85919491ECE2F1E0E491E09301
:102B9000DB0161E083E00E945910BAC0E33009F420
:102BA00067C0E43009F086C01092A0001092A10026
:102BB0008091A10088608093A1008091A100816034
:102BC0008093A100E1E1F1E0E491F0E0EE0FFF1F5E
:102BD000E153FF4F85919491ECE2F1E0E491E093B1
:102BE000D60161E083E00E945910BBC014BC15BC43
:102BF00084B5826084BD85B5816085BDE1E1F1E089
:102C0000E491F0E0EE0FFF1FE153FF4F85919491A7
:102C1000ECE2F1E0E491E093DC0161E083E00E940A
:102C2000591054C01092B0001092B1008091B000C1
:102C300082608093B0008091B10081608093B10088
:102C4000E1E1F1E0E491F0E0EE0FFF1FE153FF4F0F
:102C5000859194919093DA018093D901ECE2F1E0AF
:102C6000E491E093D80161E083E00E94591046C0EE
:102C70001092900010929100809191008860809352
:102C8000910080919100816080939100E1E1F1E0F9
:102C9000E491F0E0EE0FFF1FE153FF4F8591949117
:102CA000ECE2F1E0E491E093D70161E083E00E947F
:102CB00059104EC01E2F17FDA6C061E083E00E9490
:102CC0005910112319F0123009F518C085B5887F05
:102CD000836085BD8CE787BD88EC90E0A0E0B0E024
:102CE0008093ED019093EE01A093EF01B093F0017A
:102CF00080916E00826080936E0085C08091B100EB
:102D0000887F83608093B10089EF3AC01130F1F47D
:102D100080918100887F8160809381008FE39FE1B3
:102D2000909389008093880088EC90E0A0E0B0E068
:102D30008093E9019093EA01A093EB01B093EC0139
:102D400080916F00826080936F005DC0133039F412
:102D500080919100887F81608093910025C014301C
:102D600039F48091A100887F81608093A10034C0F4
:102D70001330D1F0143081F1123009F044C08FE3E8
:102D80008093B30088EC90E0A0E0B0E08093E50190
:102D90009093E601A093E701B093E8018091700061
:102DA0008260809370002FC08FE39FE19093990021
:102DB0008093980088EC90E0A0E0B0E08093E1017F
:102DC0009093E201A093E301B093E401809171003C
:102DD00082608093710017C08FE39FE19093A900F8
:102DE0008093A80088EC90E0A0E0B0E08093DD0143
:102DF0009093DE01A093DF01B093E0018091720017
:102E00008260809372000E940B01FDCF8091C80206
:102E10009091C902009739F0DC01ED91FC9102809C
:102E2000F381E02D09958091CA029091CB02009721
:102E300039F0DC01ED91FC910280F381E02D0995E0
:102E40008091CC029091CD02009739F0DC01ED9198
:102E5000FC910280F381E02D09958091B40290915C
:102E6000B5020E94D91880911103909112030E941B
:102E7000D91880911603909117030C94D918CF9309
:102E8000DF93EBEFF1E01382128288EE93E0A0E093
:102E9000B0E084839583A683B7832FE031E031834C
:102EA000208325EC30E03587248724EC30E0378719
:102EB000268720EC30E0318B208B21EC30E0338B07
:102EC000228B22EC30E0358B248B26EC30E0378BE4
:102ED000268B118E128E138E148EC3E0D3E01B82CC
:102EE0001A828C839D83AE83BF8381E491E09983B2
:102EF000888380E290E09D878C870E9441189F879D
:102F00008E87188A198A1A8A80E290E00E944118F6
:102F10009C8B8B8B1D8A1E8A1F8A8CE094E09D8F70
:102F20008C8F8FEF93E09F8F8E8F8BE392E099A32E
:102F300088A387E292E09BA38AA38FED91E09DA3F3
:102F40008CA389E891E09FA38EA381E691E099A7E5
:102F500088A789E591E09BA78AA78FE491E09DA7C8
:102F60008CA789E491E09FA78EA78BE492E09093D1
:102F70009902809398028FE392E090939B02809352
:102F80009A02EDE9F2E080E5868717868AE082837F
:102F900082E0838381E080939C0217828FE18087A7
:102FA00011861386128681E291E091838083E4EB9F
:102FB000F2E01182108280E48383108611861286EB
:102FC00013861486158616861786E4ECF2E01582C1
:102FD000148217821682118610868FEF838B848B62
:102FE000858B868B178A108E118E128EA3E3B3E029
:102FF00085E015968C9315978BE016968C93169713
:10300000EEE2F1E0E4911796EC931797E3E1F1E03B
:10301000E4911896EC93189740E85EE360E070E066
:103020001D964D935D936D937C935097DF91CF9157
:103030000895A1E21A2EAA1BBB1BFD010DC0AA1FF9
:10304000BB1FEE1FFF1FA217B307E407F50720F011
:10305000A21BB30BE40BF50B661F771F881F991F8C
:103060001A9469F760957095809590959B01AC01D5
:10307000BD01CF010895EE0FFF1F0590F491E02DE3
:1030800009940F931F93CF93DF938230910510F42F
:1030900082E090E0E0914803F091490320E030E0C5
:1030A000A0E0B0E0309719F1408151810281138195
:1030B00048175907C8F08417950769F4109731F03D
:1030C00012960C93129713961C9327C000934803F3
:1030D0001093490322C02115310519F042175307F7
:1030E00018F49A01BD01EF01DF01F801DBCF2115D2
:1030F0003105F9F0281B390B2430310580F48A8121
:103100009B816115710521F0FB019383828304C0CB
:103110009093490380934803FE01329644C0FE0118
:10312000E20FF31F81939193225031093983288351
:103130003AC02091460330914703232B41F420915C
:1031400007013091080130934703209346032091F3
:103150000501309106012115310541F42DB73EB727
:103160004091090150910A01241B350BE09146035F
:10317000F0914703E217F307A0F42E1B3F0B28172B
:10318000390778F0AC014E5F5F4F2417350748F0E0
:103190004E0F5F1F509347034093460381939193D3
:1031A00002C0E0E0F0E0CF01DF91CF911F910F91DD
:1031B0000895CF93DF93009709F481C0FC01329703
:1031C00013821282A0914803B0914903109781F4B1
:1031D00020813181820F931F209146033091470354
:1031E0002817390751F5F0934703E093460367C06A
:1031F000ED0120E030E0CE17DF0740F44A815B812B
:103200009E0141155105F1F0EA01F5CFD383C28348
:1032100040815181840F951FC817D90759F48881BF
:103220009981840F951F0296918380838A819B8167
:10323000938382832115310529F4F0934903E093A8
:1032400048033DC0E901FB83EA8349915991C40FCA
:10325000D51FEC17FD0761F480819181840F951FC4
:103260000296E90199838883828193819B838A8373
:10327000E0E0F0E012968D919C911397009719F081
:10328000FD01DC01F7CF8D919C9111979D012E5F7F
:103290003F4F820F931F2091460330914703281719
:1032A000390769F4309729F41092490310924803C2
:1032B00002C013821282B0934703A0934603DF91AA
:1032C000CF91089581E090E0F8940C94671910E094
:1032D000C3EAD0E004C0FE010E943B182196C43A24
:0832E000D107C9F7F894FFCFF4
:1032E800990A0000FF00004A032000000000007D4A
:1032F800049A0ACE00C404FF00DD00F100000000BB
:10330800002106E5060903DD07900501063A07FCDA
:1033180004EF037706BD0757053009E704000000EE
:1033280000D402A20206037602990287027702738A
:10333800616D706C65456E63727970744B65790068
:00000001FF
